:0600000002006B02027B0E
:03000B000209CC1B
:030013000202CE18
:01001B0032B2
:030023000201E3F4
:03002B000211625D
:01003300329A
:03003B000203219C
:030043000201A413
:01004B003282
:0300530002022F77
:01005B003272
:0300630002116027
:030066000203751D
:02006900E4733E
:0D006B007581381216E8E582600302006618
:100078007920E94400601B7A0190191D782F75A03A
:1000880001E493F2A308B8000205A0D9F4DAF275E6
:02009800A0FFC7
:06009A00E478FFF6D8FD3A
:1000A0007800E84400600A799475A000E4F309D868
:1000B000FC789BE84400600C7901900094E4F0A384
:0400C000D8FCD9FA95
:0E00C4007808E4F608F608F608F6780C7600E0
:0200D200C20268
:0200D400C20464
:0200D600C20561
:0300D800020066BD
:1000DC007E007F00C3EE9405EF648094805025EE83
:1000EC002431F582EF3401F583E0FD9000E2E4F079
:1000FC008D82C007C006120774D006D0070EBE0052
:10010C00D30F80D02290009EE4F090009EE0FF750B
:10011C00F002A42494FD740035F0FEEF2431F58236
:10012C00E43401F583E0F582C006C0051208F0AF97
:10013C0082D005D0067C008D828E83EFF0ECA3F08C
:10014C0090009EE075F002A42494F582740035F0C2
:10015C00F583E0FEA3E0FF7D007C008E828F838D13
:10016C00F0EC1203C990009EE0FFBF040050099010
:10017C00007CE4F5F012038990009EE02401F0E08D
:10018C00FFBF050040849017D975F08012040990C8
:08019C00000AE4F5F0020A89F3
:1001A400C021C0E0C0F0C082C083C007C006C00543
:1001B400C004C003C002C001C000C0D075D000128A
:1001C4001038D0D0D000D001D002D003D004D00554
:1001D400D006D007D083D082D0F0D0E0D02132C076
:1001E40021C0E0C0F0C082C083C007C006C005C003
:1001F40004C003C002C001C000C0D075D000309854
:10020400051215CCC29830990512160CC299D0D09B
:10021400D000D001D002D003D004D005D006D0073E
:10022400D083D082D0F0D0E0D02132C021C0E0C051
:10023400F0C082C083C007C006C005C004C003C0AC
:1002440002C001C000C0D075D00030C00512165ADB
:10025400C2C030C10512169AC2C1D0D0D000D0019C
:10026400D002D003D004D005D006D007D083D082EA
:10027400D0F0D0E0D02132C021C0E0C0F0C082C0B4
:1002840083C007C006C005C004C003C002C001C0CB
:1002940000C0D075D000900143E0FEA3E0FFC0078A
:1002A400C0068E828F83120069D006D007D0D0D0CA
:1002B40000D001D002D003D004D005D006D007D09E
:1002C40083D082D0F0D0E0D02132C021C0E0C0F091
:1002D400C082C083C007C006C005C004C003C002FA
:1002E400C001C000C0D075D000900145E0FEA3E07D
:1002F400FFC007C0068E828F83120069D006D00724
:10030400D0D0D000D001D002D003D004D005D00684
:10031400D007D083D082D0F0D0E0D02132C021C029
:10032400E0C0F0C082C083C007C006C005C004C0DE
:1003340003C002C001C000C0D075D000900136E0F7
:10034400FEA3E04E600E900136E0F8A3E0F583884A
:1003540082120069D0D0D000D001D002D003D004E2
:10036400D005D006D007D083D082D0F0D0E0D02101
:1003740032120B751200DC12011112125C80F87536
:03038400820022D2
:1003880022AC82AD83AEF0FF9000B3ECF0EDA3F0A9
:10039800EEA3F0EFA3F090128502052FAC82AD8397
:1003A800AEF0FF9000A5E0FB9000DDECF0EDA3F0CF
:1003B800EEA3F0EFA3F09000E1EBF09012850206B7
:1003C8007CAC82AD83AEF0FF9000AFECF0EDA3F013
:1003D800EEA3F0EFA3F0901285020502AC82AD8384
:1003E800AEF0FF9000A6E0FB9000DDECF0EDA3F08E
:1003F800EEA3F0EFA3F09000E1EBF0901285020677
:100408007CAD82AE83AFF09000ACEDF0EEA3F0EFE0
:10041800A3F09012850204A0AD82AE83AFF09000E5
:10042800A7E0FC9000A8EDF0EEA3F0EFA3F0900099
:09043800ABECF0901285020442C5
:10044200AE82AF839000A8E0FBA3E0FCA3E0FD7ABC
:10045200009000ABE0F9890019E8603F8B828C8341
:100462008DF01215B0F8A3AB82AC83C007C006C0F2
:1004720005C004C003C002C0011204808007C00688
:10048200C007888222A882D001D002D003D004D033
:1004920005D006D007E860030A80BB8A8222AE82BA
:1004A200AF839000ACE0FBA3E0FCA3E0FD9000ACC6
:1004B200E0F5F0A3E045F07003F582227A008B822A
:1004C2008C838DF01215B0F9A3AB82AC83E9F8608E
:1004D2002CC007C006C005C004C003C0021204E459
:1004E2008007C006C007888222A982D002D003D02A
:1004F20004D005D006D007E960030A80C18A8222AF
:10050200AE82AF839000AFE0FAA3E0FBA3E0FCA3CE
:10051200E0FD9000B7EAF0EBA3F0ECA3F0EDA3F05E
:100522009000BB740AF08E828F83020593AE82AF75
:10053200839000B3E0FAA3E0FBA3E0FCA3E0FD900C
:1005420000DDEAF0EBA3F0ECA3F0EDA3F09000E104
:10055200740AF08E828F8302067CAE82AF83C0075C
:10056200C0061205698008C006C00775820D22AD5B
:1005720082D006D007C007C0051205808008C006D9
:10058200C00775820A22AE82D005D007EE2DF58211
:10059200228582228583239000DCE4F09000BBE078
:1005A200FDBD020050069000BB740AF09000BBE053
:1005B200F5247BDC7C009000B7E0F525A3E0F5266E
:1005C200A3E0F527A3E0F528852429752A00752BD9
:1005D20000752C00C004C003C029C02AC02BC02C47
:1005E2008525828526838527F0E5281213ECA882CB
:1005F200E58124FCF581C000C029C02AC02BC02C93
:100602008525828526838527F0E5281214AEAA82E5
:10061200AD83AEF0FFE58124FCF581D000D003D09C
:10062200049000B7EAF0EDA3F0EEA3F0EFA3F01B05
:10063200BBFF011C8B068C07B80A005008880574A2
:10064200302DFD8004743728FD8E828F83EDF0906B
:1006520000B7E0F5F0A3E042F0A3E042F0A3E045EA
:10066200F060030205B89000ACEBF0ECA3F0E4A359
:10067200F08522828523830204A085822D85832E24
:100682009000E1E0FD701B9000DDE0F9A3E0FAA329
:10069200E0FBA3E0FC12069C8007C02DC02E8982DD
:1006A2002222BD0A0280030207499000DDE0F9A37D
:1006B200E0FAA3E0FBA3E0FC30E76FC004C003C094
:1006C20002C0011206CA8008C02DC02E75822D22DA
:1006D200A882D001D002D003D004882F9000DDC3BD
:1006E200E499F0E49AA3F0E49BA3F0E49CA3F090D5
:1006F20000DDE0F530A3E0F531A3E0F532A3E0F54B
:10070200339000B7E530F0E531A3F0E532A3F0E530
:1007120033A3F09000BB740AF0852D82852E8312DC
:100722000593AF82E52F2FF582229000B7E9F0EA18
:10073200A3F0EBA3F0ECA3F09000BB740AF0852DBC
:1007420082852E830205939000DDE0FBA3E0FCA3EB
:10075200E0FEA3E0FF9000B7EBF0ECA3F0EEA3F015
:10076200EFA3F09000BBEDF0852D82852E8302056C
:0107720093F3
:10077400E582FF90182B93FEEF90180393FF70010E
:10078400229000E2E0FD701BBF0209EEF4FC5292DD
:10079400EC529322BF0402800122EEF4FC5296EC48
:1007A400529722BD0214BF0207EE4292EE429322F8
:1007B400BF0439EE4296EE429722BD0116BF0208ED
:1007C400EEF45292EE429322BF0421EEF45296EEDE
:1007D400429722BD0316BF0208EE4292EEF45293F2
:1007E40022BF0408EE4296EEF4FE529722AF82BF77
:1007F4000102800FBF02028013BF03028017BF04EF
:1008040025801BE5C620E21E539DFB22E5C620E39E
:1008140015539DF722E5C630E20C539DFB22E5C635
:1008240030E303539DF722E582FF9017DB93FEEF3D
:1008340090182B93FDEF90180393FF7003F5822219
:10084400EE600D8E82C007C0051207F1D005D007F7
:100854007E00BF0202800ABF03028009BF040C802D
:1008640008AE908006AEA08002AEB0ED5E60047566
:1008740082012275820022E582FF9017DB93FEEF4E
:1008840090182B93FDEF90180393FFEE600D8E826A
:10089400C007C0051207F1D005D007A2AFE433FEAC
:1008A400C2AFBF0202800ABF03028017BF043680B2
:1008B400249000E3E07007EDF4FF52908027ED42AE
:1008C4009080229000E3E07007EDF4FF52A08015C1
:1008D400ED42A080109000E3E07007EDF4FF52B009
:0B08E4008003ED42B0EE6002D2AF22B4
:1008F000E58290185393FFBFFF0475820022759A1A
:100900000974FC5580FE74035F4EF580D284208408
:10091000FD859F8222AF829000E27401F08F82C039
:1009200007120774D0079000E4E0FDA3E0FE4D70CD
:100930000A9000E3E4F08F8202087B8D038E04743A
:10094000FF2C500B9000E37401F08F8202087BEFC4
:100950009017DB93FA24FB4054EA2A90095F7380D6
:100960004C800680158024803353C6FB439D04438E
:100970009D10E59D30E4FB8D9C2253C6F7439D08F6
:10098000439D10E59D30E4FB8D9B2243C604439DAF
:1009900004439D10E59D30E4FB8D9C2243C6084333
:1009A0009D08439D10E59D30E4FB8D9B22C3EB9495
:1009B00080EC9400500A9000E3E4F08F8202087B00
:0B09C0009000E37401F08F8202087BBE
:1009CC00C0D075D00808B8000D09B900090ABA00E2
:1009DC00050BBB00010CD0D032A2AFC2AFA808A946
:1009EC0009AA0AAB0BAC8A8588F092AF30F5127469
:1009FC00012C600D08B8000909B900050ABA0001FC
:100A0C000BC3EC9406FCECC313FC75F07DE8A4F866
:100A1C00ADF075F07DE9A42DF9E435F0FD75F07DB0
:100A2C00EAA42DFAE435F0FD75F07DEBA42DFB7DE9
:100A3C0000EC28F582E93DF583EA3DF5F0EB3D222B
:100A4C00A2AFC2AFA808A909AA0AAB0BAC0C92AF13
:100A5C0075F020E8A4A8F075F020E9A428F582A888
:100A6C00F075F020EAA428F583A8F075F020EBA42B
:100A7C0028F9A8F075F020ECA42889F022858210C2
:100A8C0085831185F012F5131209E585821485838F
:100A9C001585F016F517E510451145124513700133
:100AAC0022A810A911AA12AB138514188515198543
:100ABC00161A85171BE8494A4B60DBC003C002C0FD
:100ACC0001C0001209E5AC82AD83AEF0FFD000D0BE
:100ADC0001D002D003ECC39518FCED9519FDEE95F1
:100AEC001AFEEF951BFFC3EC94E8ED9403EE940013
:100AFC00EF940040A118B8FF0919B9FF051ABAFF05
:100B0C00011B881089118A128B1374E82518F518AB
:100B1C0074033519F519E4351AF51AE4351BF51B70
:100B2C00851814851915851A16851B178087AE82B2
:100B3C00AF83C374019EE49F40022200C374029EE3
:100B4C00FE74009FFF00BE0005BF000200220000E3
:100B5C000000000000000000000000000000000E7B
:100B6C00BE00EB0FBF00ED002275A15575A1AA7454
:100B7C00F855B94406F5B975A100901388120B3AD3
:100B8C0012110D12113712112675DD0075D3007577
:100B9C00D500759E5D759D0074F055894402F589EC
:0F0BAC0053C9EF758C06C28DD2A9D28CD2AF225D
:100BBC00AFDBBF08028003020F7C900007E0FE7FD2
:100BCC0000900006E0FD7C004FF534EC4EF5357FCF
:100BDC0000900001E0F536900000E0FE5460605398
:100BEC00900000E0FE5306607D00BE2005BD0002B3
:100BFC00800BBE4039BD00367FFF020F7E7420B5DE
:100C0C003603020F7E7421B5360280077422B53686
:100C1C0018800C1211B1AD82AE838D07020F7EC00D
:100C2C00071211E0D007020F7E7FFF020F7E7FFFBD
:100C3C00020F7EE53624F45003020F78E536240BC0
:100C4C0083F582E536241083F583E4735A8878485B
:100C5C00785270785F7C7E7E0F0D0F0E0F0D0C0F8F
:100C6C000D0D0F0F900003E0FEBE0102800ABE02C4
:100C7C0002800FBE0360801475377B7538187F12A5
:100C8C00805675378D7538187F46804C900002E081
:100C9C00FE24FB4036EE2E900CA7738008800E804D
:100CAC0014801A80207537D3753818801E75370F4D
:100CBC0075381980167537E3753818800E7537D767
:100CCC0075381880067537F9753818853782853868
:100CDC0083E493FF80027FFFBFFF03020F7E8F052B
:100CEC007E00C3ED9534EE953550048D348E35ADC4
:100CFC0034AE35C3ED9408EE9400920040067B08A8
:100D0C007C008004AB34AC358B077C00C3EC9F506B
:100D1C00198C027B00EC2537F582E43538F583E439
:100D2C0093F98A828B83F00C80E28F037C00EDC3F5
:100D3C009BFDEE9CFE8D348E35EF2537F537E43573
:100D4C0038F538020F7E900002E0FE8E34753500C7
:100D5C00020F7E9000E6E0900000F0AD34AE35C39B
:100D6C00ED9401EE94005003020F7E7F01020F7E82
:100D7C00900002E0FE9000E6F0020F7E900000E092
:100D8C00541F702F900003E0FD7E00900002E0FCE9
:100D9C007B004206EB4205BE0114BD001190189475
:100DAC00E493FE30E503020F7E7FFF020F7E7FFF90
:100DBC00020F7E900000E0FE53061F7D00BE0277FE
:100DCC00BD0074900004E0FEBE0102805FBE020212
:100DDC008049BE03028033BE0402801DBE810280A6
:100DEC0040BE8202802ABE83028014BE844474BC3E
:100DFC0055DE4402F5DE020F7E53DE73020F7E7465
:100E0C00BC55D64402F5D6020F7E53D673020F7E24
:100E1C0074BC55D44402F5D4020F7E53D473020F24
:100E2C007E74BC55D24402F5D2020F7E53D27302AB
:100E3C000F7E7FFF020F7E7FFF020F7E900000E08F
:100E4C00541F702F900003E0FD7E00900002E0FC28
:100E5C007B004206EB4205BE0114BD0011901894B4
:100E6C00E493FE30E503020F7E7FFF020F7E7FFFCF
:100E7C00020F7E900000E0FE53061F7D00BE0205AF
:100E8C00BD00028003020F56900003E0FD7E00902F
:100E9C000002E0FC7B004206EB4205EE4D600302D3
:100EAC000F52900005E0FD7E00900004E0FC7B00FA
:100EBC004206EB4205BE0106BD0003020F46BE0210
:100ECC0005BD00028060BE0305BD00028044BE0467
:100EDC0005BD00028028BE8105BD00028052BE8285
:100EEC0005BD00028036BE8305BD0002801ABE849B
:100EFC0051BD004E74BF55DE4403F5DE8074747F23
:100F0C0055DE440CF5DE806A74BF55D64403F5D625
:100F1C008060747F55D6440CF5D6805674BF55D47A
:100F2C004403F5D4804C747F55D4440CF5D48042E2
:100F3C0074BF55D24403F5D28038747F55D2440C1B
:100F4C00F5D27FFF802C7FFF80287FFF80249000CC
:100F5C0000E4F0900001F0AD34AE35C3ED9402EE38
:100F6C00940040047F02800AAF3480067FFF800229
:100F7C007FFFBFFF077536FF75DCCF22EF24F740EC
:100F8C00068FDD75DCC02275DD0075DCC0227405B2
:100F9C00B53602805D7406B53666AE34AF35C3EE39
:100FAC009408EF9400920140067C087D008004AC0C
:100FBC0034AD357D00C3ED9C50198D027B00ED25C1
:100FCC0037F582E43538F583E493F98A828B83F024
:100FDC000D80E28C037D00EEC39BFEEF9DFF8E34F3
:100FEC008F35EC2537F537E43538F5388CDD63DC97
:100FFC004022E5E35480FFE5344FF5E375DC022233
:10100C0075DD0075DC02227420B5360D30DE101251
:10101C00116C75DD0085DCDC2275DD0043DC022201
:10102C0075D30074FC55D24402F5D22220D90302A8
:10103C0010E3E5D9540FFFADD95305307E00BD0048
:10104C0005BE0002801CBD1005BE00028036BD200E
:10105C0005BE00028043BD3006BE00030210C9026B
:10106C0010E1EF24FB50030210E1EF2F90107C7382
:10107C00800880618009805D805B1210138056129D
:10108C0013CE8051EF24FB404CEF2F90109B7380BC
:10109C004480428040803E803CEF24FB4037EF2F61
:1010AC009010B0738008800B800E80298027120F5F
:1010BC009A802212102C801D1213C08018EF24FB72
:1010CC004013EF2F9010D47380088009800780059F
:1010DC008003120BBCC2D930D81A75DC0275D2123F
:1010EC0075D41275E300C2DAC2D9C2D89000E6E416
:1010FC00F012116410DA0122E5DA20E20375D8FF50
:10110C002275E20053E27F43E22975E30053E2BF0C
:10111C0053D1FB75D18043D1012243E10443E10259
:10112C0043E10143D81FD2EAD2AF227E007F008E6A
:10113C00EC8FED7E0A7F008EEE8FEF7E147F008E9B
:10114C00E48FE575EB0C75D21275D41275EA407507
:03115C00DC022290
:01116000325C
:01116200325A
:1011640090013FE4F0C202227F00C3E5DB940792C2
:101174000340067D077E008004ADDB7E008F037C88
:1011840000C3EB9DEC64808EF063F08095F0501CFE
:10119400EF2438FDE43401FEEF2400F582E434004A
:1011A400F583E0FC8D828E83F00F80BE227F008F5A
:1011B400057E00C3ED9407EE9400501CEF2400FD5F
:1011C400E43400FEEF2438F582E43401F583E0FCD6
:1011D4008D828E83F00F80D790000722900002E06A
:1011E400FF900141F0E020E033900138E0FCA3E0FF
:1011F400FDA3E0FEA3E0FFBCB022BD041FBE001CA3
:10120400BF001975E200C2AF75890090C350120B7C
:101214003A90C350120B3A12380080FE227E007FAF
:10122400003002200EBE00010F900005C007C0066A
:10123400120B3AD006D007C3EE9450EF94C340E1AA
:101244007582002275820122751D00900141E060C3
:1012540003751D01851D8222200225900142E0FFB5
:10126400601E8FD553D4FCD202BF400F121221E569
:1012740082600875D50053D4FCD202900142E4F098
:1012840022AF82900141E06041C007121221E58241
:10129400D0077003F58222900142E0FEBE40005068
:1012A400207D0074402EFEE43DFDEE2414F582ED15
:1012B4003400F583EFF0900142E02401F0758201DF
:1012C40022C00712125CD00780BF75820022AFF0E3
:1012D400AE83E5829000E9F0EEA3F0EFA3F0900175
:1012E40041E070030213889000E7E0FEA3E0FFC32F
:1012F400E49E74808FF063F08095F04003021388BD
:10130400C007C006121221E582D006D0077003F58B
:1013140082229000E9E0FBA3E0FCA3E0FDC3E49E8D
:1013240074808FF063F08095F050BC900142E0FA35
:10133400BA400050498A017A00744029F9E43AFA23
:10134400E92414F9EA3400FA8B828C838DF01215A7
:10135400B0F8A3AB82AC839000E9EBF0ECA3F0ED22
:10136400A3F089828A83E8F0900142E02401F01E10
:10137400BEFF011F9000E7EEF0EFA3F0809F121272
:101384005C0212EB7582002290013FE0F58222900C
:10139400013FE07003F58222900140E02414F582BD
:1013A400E43400F583E0FF900140E004F090013F55
:1013B400E014F0E0700353D4F38F822275D50074E7
:1013C400FC55D44402F5D4C2022230DE1990013F08
:1013D400E5DBF0900140E4F090013FE0600874F335
:0713E40055D44408F5D422A2
:1013EC00C01C85811CAC82AD83AEF0FF05817B00F7
:1013FC00A81C087600E51C24FAF8080808E6235413
:10140C0001FA704CE51C24FAF8E626F608E633F6E9
:10141C0008E633F608E633F6E51C24FAF8C3EC9636
:10142C00ED0896EE0896EF0896501AE51C24FAF88B
:10143C00080808E6C313F618E613F618E613F618B0
:10144C00E613F6800BA81C0806A81C08860380A5CA
:10145C00E51C24FAF8C3EC96ED0896EE0896EF0816
:10146C00964015E51C24FAF8ECC396FCED0896FDA5
:10147C00EE0896FEEF0896FFE51C24FAF80808081B
:10148C00E6C313F618E613F618E613F618E613F689
:10149C008B021BEA70BA8C828D838EF0EF1581D093
:1014AC001C22C01C85811CC082C083C0F0C0E07AA5
:1014BC00007B007E007F007D20A81C08080808E641
:1014CC00235401FCA81C08E626F608E633F608E6C9
:1014DC0033F608E633F6EA2AFAEB33FBEE33FEEF8B
:1014EC0033FFEC6003430201E51C24FAF8C3EA96CF
:1014FC00EB0896EE0896EF0896401CE51C24FAF8CB
:10150C00EAC396FAEB0896FBEE0896FEEF0896FFF8
:10151C00A81C08E64401F6DDA0A81C0886820886F3
:0C152C00830886F008E6851C81D01C2294
:1015380022AF82BF0200503EEF75F002A42443FDA3
:10154800740135F0FE9000ECE0FBA3E0FC8D828E88
:1015580083EBF0ECA3F0BF00028005BF0118800BFD
:101568009000EEE024FF9288D2A8229000EEE0FFDF
:1015780024FF928AD2AA22AF82BF02005028BF005D
:10158800028005BF01088004C2A88002C2AAEF75C4
:10159800F002A42443FE740135F0FF8E828F837419
:0715A80038F07415A3F022D6
:1015B00020F71430F6148883A88220F507E6A88364
:0C15C00075830022E280F7E49322E02211
:1015CC00900147E0FF7E000FBF00010E7410C0E0D9
:1015DC00E4C0E08F828E831216ECAE8215811581E9
:1015EC00900148E0FFEEB5070122900147E024EF9F
:1015FC00F582E43400F583E599F0900147EEF02292
:10160C0030044A900149E0FF90014AE0FEEFB50634
:10161C0005A204C2042290014AE024FFF582E434BE
:10162C0000F583E0F59990014AE0FF7E000FBF00C2
:10163C00010E7410C0E0E4C0E08F828E831216ECB1
:0E164C00AE82AF831581158190014AEEF02227
:10165A0090014BE0FF7E000FBF00010E7410C0E046
:10166A00E4C0E08F828E831216ECAE82158115815A
:10167A0090014CE0FFEEB507012290014BE0240FE8
:10168A00F582E43401F583E5C1F090014BEEF022D6
:10169A0030054A90014DE0FF90014EE0FEEFB5069D
:1016AA0005A205C2052290014EE0241FF582E4340A
:1016BA0001F583E0F5C190014EE0FF7E000FBF0007
:1016CA00010E7410C0E0E4C0E08F828E831216EC23
:0E16DA00AE82AF831581158190014EEEF02295
:1016E80075820022C01C85811CAE82E583FF33E42D
:1016F80033FD6009C3E49EFBE49FFC80048E038FE6
:1017080004E51C24FCF808E630E70FE51C24FCF887
:10171800C3E496FE08E496FF800AE51C24FCF886DC
:1017280006088607C005C006C0078B828C8312177F
:101738005AAE82AF8315811581D005ED600DC3E4E3
:101748009EFCE49FFD8C828D8380048E828F83D0E3
:101758001C22C01C85811CAE82AF837D007C00E505
:101768001C24FCF808E6235401FB702FE51C24FC1C
:10177800F8E626F608E633F6E51C24FCF8C3EE96F0
:10178800EF08965011E51C24FCF808E618C313C6A8
:1017980013C608F680050C8C0580C4E51C24FCF8EB
:1017A800C3EE96EF0896400DE51C24FCF8EEC396B0
:1017B800FEEF0896FFE51C24FCF808E618C313C6DC
:1017C80013C608F68D041DEC70D18E828F83D01C51
:0117D80022EE
:0217D9000A0004
:1017DB0000000000000000000000000000000001FD
:1017EB0000000000000000000000000000000304E7
:1017FB0000000200000000000101010101010101D4
:10180B0000000202020202020202000003030303B1
:10181B000303030300000404040404040404000091
:10182B00010204081020408000000102040810206F
:10183B0040800000010204081020408000000102DB
:10184B000408102040800000FFFFFFFFFFFFFFFF99
:10185B00FFFFFF00FFFF0102FFFFFFFFFFFFFFFF87
:10186B00FFFFFFFFFFFFFFFF03FFFFFFFFFFFFFF79
:10187B0012011001EF020108091250C5010101020A
:10188B000301090246000201008064080B000202FA
:10189B0002010409040000010202010405240010E6
:1018AB000104240202052406000107058103080038
:1018BB004009040100020A0000040705020240006F
:1018CB000007058202400000040309040C034300D7
:1018DB0048003500350078001603430048003500FA
:1018EB00350078006400750069006E006F00160308
:1018FB004300440043002000530065007200690060
:10190B0061006C000E0344006500710069006E00FD
:02191B00670063
:07191D0075030B0E0F200003
:021924000000C1
:0B19260000E1000000000800000000CD
:041931003815381518
:0419350000000000AE
:0419390000000000AA
:00000001FF
